:020000040800F2
:1000000090190020A1010008F7180008DD1200086F
:10001000F51800084F070008E12100080000000063
:10002000000000000000000000000000D91A0008D5
:100030005107000800000000F9180008012000081E
:10004000BB010008BB010008BB010008BB010008A0
:10005000BB010008BB010008BB010008BB01000890
:10006000BB010008BB010008BB010008BB01000880
:10007000BB010008BB010008BB010008BB01000870
:10008000BB010008BB010008BB010008BB01000860
:10009000BB010008BB010008BB010008BB01000850
:1000A000BB010008BB010008BB010008BB01000840
:1000B000BB010008BB010008BB010008BB01000830
:1000C000BB010008BB010008BB010008BB01000820
:1000D000BB010008BB010008BB010008BB01000810
:1000E000BB010008BB010008BB010008BB01000800
:1000F000BB010008BB010008BB010008BB010008F0
:10010000BB010008BB010008BB010008BB010008DF
:10011000BB010008BB010008BB010008BB010008CF
:10012000BB010008BB010008BB010008BB010008BF
:10013000BB010008BB010008BB010008BB010008AF
:10014000BB010008BB010008BB010008BB0100089F
:10015000BB010008BB010008BB010008BB0100088F
:10016000BB010008BB010008BB010008BB0100087F
:10017000BB010008BB010008BB0100080000000033
:10018000BB010008BB010008DFF810D000F05EFAE8
:1001900000480047E12A0008AFF3008090190020D2
:1001A0000648804706480047FEE7FEE7FEE7FEE711
:1001B000FEE7FEE7FEE7FEE7FEE7FEE79D2000081C
:1001C000890100082DE9F05F0546002092469B4614
:1001D00088460646814640241BE02846414647465D
:1001E000224600F06AF853465A46C01A914110D38D
:1001F00011461846224600F051F82D1A67EB010807
:100200004F4622460120002100F048F817EB000974
:100210004E41201EA4F10104DFDC484631462A4647
:100220004346BDE8F09F00000649074A086850436E
:1002300043F23902104408604008704701490860E1
:1002400070470000600000206D4EC641D2B201E050
:1002500000F8012B491EFBD270470022F6E710B5CB
:1002600013460A4604461946FFF7F0FF204610BD24
:1002700030B50B46014600202022012409E021FA76
:1002800002F59D4205D303FA02F5491B04FA02F573
:100290002844151EA2F10102F1DC30BD202A04DB46
:1002A000203A00FA02F1002070479140C2F1200389
:1002B00020FA03F3194390407047202A04DB203AC8
:1002C00021FA02F00021704721FA02F3D040C2F176
:1002D000200291400843194670472DE9FE4F8046A1
:1002E00081EA0300C00F0C46009021F0004123F08A
:1002F0000045B8EB0200A94105D240462146904690
:100300001C460B46024623F00040104347D0270D01
:10031000C7F30A00C3F30A510290401A0190402823
:100320006BDAC3F3130040F4801B0098924620B1AF
:100330000023D2EB030A63EB0B0B01985946C0F183
:1003400040025046FFF7AAFF06460D465046594662
:10035000019A00F08DF910EB08006141002487EA52
:10036000115284EAE7731A4340D0009A62B3019AAB
:10037000012A4FEA075215DC001B61EB02014FF026
:10038000004202EA0752CDE90042001C41F580110B
:1003900032462B4600F08DF903B0BDE8F08F4046A1
:1003A0002146F9E7001B61EB0201001C41F58013B7
:1003B00000185B412018A2F5001747EB030140EA43
:1003C000D570B6196D4111E06D084FEA360645EA61
:1003D000C0754FEA0752001B61EB0201001C41F59A
:1003E000801149084FEA30000019514132462B462E
:1003F00003B0BDE8F04F00F04DB900980122400075
:100400000023D0EB020263EBE073009821464FEA31
:10041000E074B8EB000061EB0401E9E783F000430E
:100420005BE781F0004158E72DE9FE4F81EA0304C4
:1004300004F0004421F0004100944FF0000B23F041
:10044000004350EA01045ED052EA03045BD0C3F3D8
:100450000A54C1F30A552C44A4F2F3340194A0FBCE
:100460000254C1F3130141F48011C3F3130343F4A5
:10047000801301FB024400FB034E840A970A44EAFE
:10048000815447EA8357A4FB076802958D0A05FB50
:1004900007854FEA932C04FB0C542705029D4FEA75
:1004A000065847EA1637B5EB08056EEB070C870EC2
:1004B000920E47EA811742EA8312A7FB0201B6EBCC
:1004C0000B0164EB00042B0D43EA0C335E1844EB84
:1004D0001C50DA465146E7FB0201C5F313044FEA0C
:1004E0000B3343EA14534FEA0432019C43EA0603F8
:1004F000A4F10C040294009CCDE900B400F0D9F8FA
:1005000003B0BDE8F08F00200146F9E72DE9F04D7A
:1005100081EA030404F0004B21F0004514464FF03B
:10052000000A23F0004150EA050220D054EA0102FB
:100530001DD0C5F30A570246C5F31303C1F31300D8
:10054000C1F30A5640F4801543F48013A7EB060864
:10055000101BD64608F2FD3873EB050002D308F1F4
:10056000010801E092185B41B8F1000F03DA0020A6
:100570000146BDE8F08D00204FF480110646844608
:100580000EE0171B73EB050705D3121B63EB050386
:1005900006434CEA010C49084FEA300092185B41CF
:1005A00050EA0107EDD152EA030012D082EA0400BA
:1005B00083EA0501084305D0101BAB4106D2012296
:1005C000002306E000224FF0004302E06FF001023A
:1005D00053101AEB06004CEB085110EB0A0041EBEC
:1005E0000B01BDE8F04D00F055B8C1F30A52C1F35C
:1005F000130140F2FF3341F480119A4202DA0020E5
:100600000146704740F233439A42A2F2334202DC81
:100610005242FFF752BEFFF741BE000030B5041E44
:1006200071F1000404DB4FF00044404264EB01012F
:10063000141E73F1000405DB1C464FF000435242C8
:1006400063EB0403994208BF904230BD064C074D4E
:1006500006E0E06840F0010394E807009847103492
:10066000AC42F6D3FFF794FD045200082452000870
:10067000202A06DBCB17203A41FA02F043EAE07366
:1006800006E041FA02F3D040C2F120029140084353
:100690001946704710B5141E73F1000408DA401CA7
:1006A00041F1000192185B411A4301D120F0010091
:1006B00010BD2DE9F04D92469B4611B1B1FA81F281
:1006C00002E0B0FA80F220329046FFF7E7FD0446E0
:1006D0000F4640EA0A0041EA0B0153465A460843D6
:1006E00013D0114653EA010019D0C8F14002504618
:1006F000FFF7E3FD05460E46504659464246FFF7D2
:10070000CDFD084305D0012004E020463946BDE870
:10071000F08D0020054346EAE0762C4337430A98E3
:100720006305E40AA0EB08000022FD0A44EA4754EE
:100730000A3002D500200146E9E701051019694198
:10074000DDE9084500196941BDE8F04DA2E7FEE783
:100750007047000070B5044600F018F90546601CAB
:1007600002D004480078044400F010F9401BA04275
:10077000FAD370BD500000202DE9F84FDFF8BCA17E
:100780000022012503264FF00F090AF1040BAAF1FC
:10079000040E00BF0B6805FA02F42340A34270D197
:1007A0000F7907F00307012F01D0022F16D18768B8
:1007B0004FEA420806FA08FC27EA0C07D1F80CC0F9
:1007C0000CFA08FC4CEA070CC0F808C04768A743BD
:1007D0000C79C4F3001494403C4344600C79E44326
:1007E000A4070AD0C4684FEA420C06FA0CF7BC43CF
:1007F0008F6807FA0CF72743C7600C7904F00304ED
:10080000022C12D1D40800EB840CDCF820405707EE
:10081000FF0E09FA07F824EA0804D1F8108008FA54
:1008200007F848EA0408CCF8208004684FEA420C34
:1008300006FA0CF7BC430F7907F0030707FA0CF729
:10084000274307604C6814F4403F70D03C4C276845
:1008500047F480472760246822F0030704F48044AB
:100860000094384C07EB040CDCF8084897074FEA73
:10087000177809FA08F7BC43334FB84202D1002772
:1008800024E054E0314FB84201D101271EE0304F3F
:10089000B84201D1022719E02E4FB84201D10327F7
:1008A00014E02D4FB84201D104270FE02B4FB8427E
:1008B00001D105270AE02A4FB84201D1062705E0F9
:1008C000284FB84201D1072700E0082707FA08F7A8
:1008D0002743CCF80878DAF800405746D1F804C02E
:1008E0009C435FEACC2C00D51C433C60DBF8004005
:1008F0005F46D1F804C09C435FEA8C2C00D51C43B2
:100900003C60DEF800407746D1F804C09C435FEAC3
:100910008C3C00D51C433C60084F083F3C68D1F834
:1009200004C09C435FEACC3C00D51C433C60521C95
:10093000102AFFF42FAFBDE8F88F0000083C0140FB
:1009400044380240003001400000024000040240F0
:1009500000080240000C0240001002400014024057
:1009600000180240001C02400069084000D001202D
:100970007047426921EA02030A4043EA0241816169
:1009800070470AB1816170470904FBE7014880683C
:10099000704700005000002002488168027811442E
:1009A00081607047500000200B4810B5016841F489
:1009B00000710160016841F480610160016841F4E7
:1009C00080710160032000F061F80F2000F006F84C
:1009D00000F024F8002010BD003C024070B50D4D21
:1009E00004464FF47A712878B1FBF0F00A4909689F
:1009F000B1FBF0F000F0E8FB48B9102C07D2002260
:100A00002146501E00F022F800206C6070BD0120CD
:100A100070BD0000500000205C0000200A4808B5AE
:100A2000016841F480410160006800F4804000905A
:100A30000548001F016841F080510160006800F026
:100A40008050009008BD000044380240F0B40E4BC6
:100A50001B680C46C3F30223C3F10705042D00D91C
:100A60000425191D072901D2002300E0DB1E012601
:100A700006FA05F1491E214099409E40761E164017
:100A80003143F0BC01F0C2BB0CED00E0064900F0C0
:100A9000070208684FF6FF03184040EA0220034AA5
:100AA00010430860704700000CED00E00000FA05FC
:100AB0002DE9F0470E46050065D0DFF81481D8F81F
:100AC0000000F7B200F00700B04207D288F80070CB
:100AD000D8F8000000F00700B04254D128683D4C1F
:100AE000810712D5400703D5206840F4E05020600C
:100AF0002878000703D5206840F460402060206813
:100B0000A96820F0F000084320602878C0072DD0A5
:100B1000304968680839012812D0022813D0032808
:100B200011D00968890700292DDA216821F0030115
:100B300001432160FFF72AFF814641F2883A0EE027
:100B400009688903EFE709688901ECE7FFF71EFFF1
:100B5000A0EB0901514502D90320BDE8F0872068C8
:100B6000696800F00C00B0EB810FEFD1D8F80010ED
:100B7000404601F00701B14207D90770006800F054
:100B80000700B04201D00120E7E72878400705D5EB
:100B90002068E96820F4E0500843206028780007C6
:100BA00006D52068296920F4604040EAC100206031
:100BB00000F038F82168084AC1F30311515CC840BD
:100BC0000649086006480068FFF708FF0020C4E7F0
:100BD000003C024008380240EC5100085C00002054
:100BE000540000200448054900680968044AC1F31C
:100BF0008221515CC84070475C00002008380240E8
:100C0000FC5100080448054900680968044AC1F31A
:100C10004231515CC84070475C00002008380240F7
:100C2000FC510008154810B5006810F00C0214487B
:100C300013D04110042A0FD0082A0ED10F4C241FC4
:100C40002268236802F03F025B0207D52068C0F3E8
:100C50008810A0FB010106E0084610BD2168C1F321
:100C60008811A1FB00010023FFF7ACFA2168C1F352
:100C70000141491C4900B0FBF1F010BD08380240A9
:100C80000024F4002DE9F84F04006ED02078DFF83E
:100C90004C93C007A9F104054AD009F1040001688A
:100CA000C1F38101012908D00068C0F38100022846
:100CB0000AD1D9F80000400206D52868800337D54C
:100CC00060680028E1D033E06068B0F5803F10D064
:100CD000B0F5A02F286810D020F480302860286854
:100CE00020F4802028606068A8B1FFF74FFE064618
:100CF0000DE0286840F48030F4E740F4802028605C
:100D0000F7E700BFFFF742FE801B642873D828680E
:100D10008003F7D50CE0FFF739FE064605E000BF7B
:100D2000FFF734FE801B6428F0D828688003F7D4CE
:100D30002078DFF8AC8280074FF0000A3ED5A74844
:100D4000001D016811F00C0F08D00068C0F381008D
:100D500002280BD1D9F80000400207D42868800788
:100D600016D5E068012800D112E033E1E068B8B19F
:100D70000120C8F80000FFF709FE064605E000BFA5
:100D8000FFF704FE801B0228C0D828688007F7D52B
:100D90002868216920F0F80040EAC10028600DE0D1
:100DA000C8F800A0FFF7F2FD064604E0FFF7EEFDED
:100DB000801B02281FD828688007F7D420780007F6
:100DC00022D5864F87486169703771B10121016072
:100DD000FFF7DCFD064604E0FFF7D8FD801B022884
:100DE00009D838688007F7D50EE0C0F800A0FFF7F3
:100DF000CDFD064605E082E0FFF7C8FD801B022816
:100E00007DD838688007F7D42078400768D5DFF8A8
:100E1000CCB100270BF13C0BDBF80000C0000BD479
:100E2000DBF8001041F08051CBF80010DBF8000037
:100E3000012700F0805000906B4E3068C00510D440
:100E4000306840F480703060FFF7A0FD009005E04E
:100E5000FFF79CFD0099401A022850D83068C00561
:100E6000F6D55E4EA0686C3601280FD00528306894
:100E700010D020F001003060306820F004003060B5
:100E8000A068B8B1FFF782FD00900FE0306840F035
:100E90000100F4E740F004003060F7E7FFF776FD6B
:100EA0000099411A41F28830814266D83068800743
:100EB000F4D50EE0FFF76AFD009007E0FFF766FD4E
:100EC0000099411A41F28830814256D83068800733
:100ED000F4D42FB1DBF8001021F08051CBF80010D2
:100EE000A069C8B33D49091D0968C1F38101022900
:100EF0004AD00228504607D0C8F8600000E03CE025
:100F0000FFF744FD04463BE04746C8F86000FFF7A2
:100F10003DFD064605E000BFFFF738FD801B0228B7
:100F20002BD828688001F7D4D4E907010843A16AC7
:100F30002E4A490802EB0141626A41EA82110843E4
:100F400094F82C1040EA0161C9F8001001203866BD
:100F5000FFF71CFD044606E03EE000BFFFF716FD6C
:100F6000001B022809D828688001F7D534E000BFAB
:100F7000FFF70CFD001B022802D90320BDE8F88F03
:100F800028688001F4D427E00128F7D0D9F80000C0
:100F9000E26900F4800191421CD1226A00F03F0115
:100FA000914217D147F6C071626A0140B1EB821FCE
:100FB00010D1A26A4FF0FF3300F4403103EB52022C
:100FC000B1EB024F06D194F82C1000F07060B0EB3A
:100FD000016F01D00120D1E70020CFE704380240A3
:100FE00000004742800E4742007000400000FFFFB3
:100FF00070B5040009D0606A002540B125616561C3
:10100000A56294F8510040B10CE0012070BD606809
:10101000B0F5827FF4D0E561F2E784F850502046C5
:1010200000F044F8022084F851002068016821F0A3
:1010300040010160A088218900F4827001F404411C
:101040000843A18901F400610843217C01F00201F9
:101050000843217D01F001010843218B01F4007157
:101060000843217F01F03801084394F8201001F073
:1010700080010843218D01F4005108432168086074
:10108000A069042101EA104094F8241001F0100135
:101090000843216848602068C16921F40061C1618A
:1010A0006565012084F85100002070BD2DE9F047EE
:1010B00086B0044614216846FFF7CFF83E49206801
:1010C000884275D13D480024016841F40041016027
:1010D000006800F40040059038481038016841F07D
:1010E00002010160016801F002010591016841F00F
:1010F00002010160016801F002010591016841F0FF
:1011000008010160016801F008010591016841F0E2
:1011100008010160016801F008010591016841F0D2
:10112000080101600068022500F008000590082011
:10113000CDE900050320CDE902400620204E0490B1
:1011400069463046FFF718FB20200090694630467C
:10115000FFF712FBAF020126DFF868A0CDE90076A9
:1011600069465046CDE90245FFF706FB4FF40058AB
:10117000CDF80080CDE90164694650460394FFF73D
:10118000FBFA4FF48059CDE9009669465046CDE907
:101190000245FFF7F1FA012249465046FFF7F1FBFD
:1011A000084818300760002241465046FFF7E9FB27
:1011B00006B0BDE8F0870000003C00404038024027
:1011C00000040240000C024010B5401EB0F1807FC8
:1011D00001D3012010BD4FF0E02460610F216017A2
:1011E00001F014F80020A06107202061002010BD4C
:1011F00070B5040004D094F83D00002510B106E05D
:10120000012070BD84F83C50204600F023F82420D3
:1012100084F83D002068C16821F40051C160204677
:1012200000F044FF2068016921F4904101612068C9
:10123000416921F02A0141612068C16841F40051EF
:10124000C1602564202084F83D0084F83E00002021
:1012500070BD000010B586B0044614216846FEF744
:10126000FCFF1B492068884230D11A48016841F0D0
:1012700010010160006800F0100005901548143856
:10128000016841F001010160016801F0010105916F
:10129000016841F00101016000680F4C00F001009D
:1012A00005904FF400700090022001900120029000
:1012B000032003900720049069462046FFF75CFA5C
:1012C0002015009069462046FFF756FA06B010BD7B
:1012D000001001404438024000000240FEE70000D8
:1012E00000B587B014216846FEF7B7FF0A48002111
:1012F000026842F001020260006800F001000590FF
:101300004FF40040CDE900010120029069460348F6
:10131000FFF732FA07B000BD30380240000002404B
:1013200070B5234C0021A089401E83B26089401E05
:1013300082B2084600F068F9A4F6580001680B680C
:101340004FF6BF7213400B6001680B6843F40063F3
:101350000B6001680B6843F040030B60154B4FF0C6
:1013600000611960002107E006686568F56005689E
:10137000AE68B607FCD5491C6589A68975438D42C0
:10138000F2D801688C682406FCD44FF400641C6019
:101390000B6813400B6001680A684FF2FF731A4034
:1013A0000A600068016841F04001016070BD000002
:1013B00080150020180C02402DE9F05F0023203A30
:1013C00002F0FF0B284A824689464FF000601C4617
:1013D00019461060DFF894E0254EDEF8000026E0A4
:1013E0000768DFF890C00BFB0272BCF80070BCF815
:1013F00004C09D5C0022BFB21FFA8CFC5FEAC57876
:1014000002D026F8147001E026F814C0641C491CB0
:10141000B0F804806D0889B2A4B2884501D10021DA
:1014200003E0521C92B2082AE8D35B1C9BB20289EB
:101430009A42D5D8C288A9F1010111448BB28188A2
:10144000AAF10100084482B274464946504600F0B1
:10145000DBF820688188C088BDE8F05F414389B22D
:10146000034800F07BB90000180C0240480000203F
:10147000800D0020801500202DE9F041154688469A
:1014800004460A4F0A4E08E041462046FFF794FF03
:1014900038686D1C8088204484B27089A04202D9CB
:1014A0002A78002AF0D1BDE8F08100004800002031
:1014B0008015002070B514460C4A0B46A2F5006555
:1014C0001288002192B203E025F81120491C89B24C
:1014D000A142F9D30119491E8AB2194600F094F8C5
:1014E0002146BDE87040024800F038B98015002060
:1014F000800D002070B50D4B1446A3F500651B88C8
:1015000000229BB204E000BF25F81230521C92B2B8
:10151000A242F9D30A19521E93B2024600F074F89F
:101520002146BDE87040024800F018B9801500203F
:10153000800D00202DE9F0411C4616460D46074659
:10154000FFF7B8FF2819401E81B232463846FFF730
:10155000B1FF224629463846FFF7CCFFB81922468C
:101560002946BDE8F041401E80B2FFF7C3BF00002E
:101570002DE9F0411D4614464A19521E93B2021934
:10158000521E92B200F040F81D4801680B684FF6F9
:10159000BF7213400B6001680B6843F400630B607B
:1015A00001680B6843F040030B60164B4FF000617D
:1015B0001960002100F658066C4308E0076835689A
:1015C000FD600568AF68BF07FCD5491C89B28C4235
:1015D000F4DC01688C682406FCD44FF400641C60C1
:1015E0000B6813400B6001680A684FF2FF731A40E2
:1015F0000A600068016841F040010160BDE8F081C7
:10160000280D0020180C02402DE9F047194D8046A6
:101610004FF00060994616460F4628602A2000F0D9
:10162000DBF8154CA17B01EB080080B200F0F8F864
:10163000A07B304480B200F0F3F82B2000F0CCF80F
:10164000E07B384480B200F0EBF8E17B01EB09006D
:1016500080B200F0E5F82C2000F0BEF8A4F65800A7
:10166000006881680906FCD44FF400602860BDE87A
:10167000F0870000180C0240801500200149086026
:1016800070470000480000204FF478414FF4FC629E
:1016900001EA102102EA5012C0F3C40011430143D1
:1016A0000148416070470000801500204FF47841E8
:1016B0004FF4FC6201EA102102EA5012C0F3C400A8
:1016C000114301430148016070470000801500206C
:1016D0002DE9F0411E4CDFF87C804FF00062607213
:1016E000C8F800200026F02538B102280AD050277B
:1016F00001281CD0032822D00EE0362000F06CF820
:10170000702003E0362000F067F8002000F098F821
:10171000A673E6736581A5810F4800688168090694
:10172000FCD44FF40061C8F80010BDE8F081362009
:1017300000F052F8A02000F083F8A773E9E7362004
:1017400000F04AF8C02000F07BF8A673E773E1E7E9
:1017500080150020180C0240280D0020F0B51C4A0E
:1017600013681D684FF6BF7425401D6013681D681F
:1017700045F400651D6013681D6845F040051D6057
:10178000144D4FF000632B60002308E0176830F819
:101790001360FE601668B768BF07FCD55B1C8B4200
:1017A000F4D3106881680906FCD44FF40061296005
:1017B000016821400160106801684FF2FF73194011
:1017C00001601068016841F040010160F0BD000057
:1017D000280D0020180C02402DE9F0410E4C074660
:1017E000206881680906FCD40C4E4FF48055002215
:1017F00029463046FFF7C5F82068C7602268906820
:101800008007FCD590680006FCD429463046BDE828
:10181000F0410122FFF7B5B8280D0020000C02406E
:101820000649020A0B68DA600A6893689B07FCD5D0
:10183000D060086881688907FCD57047280D0020B2
:1018400003490A68D060086881688907FCD5704739
:10185000280D002070B586B014216846FEF7FDFC07
:101860000E480024016841F00401016000680C4E3C
:1018700000F004004FF400550590224629463046FA
:10188000FFF77FF801200095CDE901046946304655
:101890000394FEF771FF06B070BD000030380240BF
:1018A0000008024010B5124C10484FF4007120603F
:1018B0004FF4827060604FF40040A0600020E06050
:1018C0002061C4E90501E06120626062A062E0621B
:1018D0002046FFF78DFB2068016841F04001016060
:1018E0002068016841F48041016010BD003C004067
:1018F000280D0020FEE7FEE77047000010B5FFF757
:10190000D1FF0A20FEF726FF6E4C4FF000602060EA
:101910003620FFF761FF0020FFF792FF3A20FFF724
:101920005BFF0520FFF78CFFB220FFF755FF0C206F
:10193000FFF786FF0C20FFF783FF0020FFF780FFF3
:101940003320FFF77DFF3320FFF77AFFB720FFF743
:1019500043FF3520FFF774FFBB20FFF73DFF192041
:10196000FFF76EFFC020FFF737FF2C20FFF768FF5F
:10197000C220FFF731FF0120FFF762FFC320FFF70E
:101980002BFF1220FFF75CFFC420FFF725FF20206C
:10199000FFF756FFC620FFF71FFF0F20FFF750FF8E
:1019A000D020FFF719FFA420FFF74AFFA120FFF77F
:1019B00047FFE020FFF710FFD020FFF741FF042092
:1019C000FFF73EFF0D20FFF73BFF1120FFF738FF29
:1019D0001320FFF735FF2B20FFF732FF3F20FFF7E3
:1019E0002FFF5420FFF72CFF4C20FFF729FF182072
:1019F000FFF726FF0D20FFF723FF0B20FFF720FF47
:101A00001F20FFF71DFF2320FFF71AFFE120FFF73C
:101A1000E3FED020FFF714FF0420FFF711FF0C2096
:101A2000FFF70EFF1120FFF70BFF1320FFF708FF52
:101A30002C20FFF705FF3F20FFF702FF4420FFF7B0
:101A4000FFFE5120FFF7FCFE2F20FFF7F9FE1F20BD
:101A5000FFF7F6FE1F20FFF7F3FE2020FFF7F0FE52
:101A60002320FFF7EDFE2120FFF7B6FE1120FFF740
:101A7000B3FE7820FEF76EFE2920FFF7ADFE124878
:101A8000006881680906FCD44FF4006020600220E1
:101A9000FFF71EFE0020FFF7F7FD6FF07F40FFF716
:101AA00005FEFFF73DFC0A49084801220860094984
:101AB0000020087203485103BDE810401838FEF7B3
:101AC00060BF0000180C0240280D002024000020F8
:101AD0004800002080150020704700002DE9F05FCD
:101AE000654C4FF6FF754FF0180BD4E902018142A7
:101AF00020DC216800291DDB606800281ADB01EB6F
:101B0000410105EA810600EB40010BEB810087B241
:101B10005A48FFF7CBFD0C231A4639463046FFF7EB
:101B200027FD5748FFF7C2FD0C231A4639463046B9
:101B3000FFF700FDA2462046E4685249846001EBAD
:101B40008402884652F8042C026001F5C86202EB58
:101B50008403914653F8043CCAF8043018E000BFEF
:101B600038F8240000EB400005EA800739F824002B
:101B700000EB40010BEB81064FF44C40FFF796FD64
:101B8000761C7F1C0A23B1B2B8B21A46FFF7F0FCEC
:101B9000641E002CE4DCD8F8000000EB40014FF696
:101BA000FF7000EA8105B9F8000000EB40010BEB83
:101BB000810087B24FF47F40FFF778FD781C81B237
:101BC000681C0A2380B21A46FFF7D2FC05F102080E
:101BD000DAF8100007F10209444607F1080630B1AF
:101BE000012808D002280DD003280BD107E005F109
:101BF0000804A04606E0B14605F1080402E005F13C
:101C000008044E466FF07F40FFF750FD02231FFA95
:101C100089F11FFA88F01A46FFF7AAFC0223B1B235
:101C2000A0B21A46FFF7A4FCBAF81410BAF81800CC
:101C300001EB41024FF6FF7101EA820500EB400122
:101C40000BEB81044FF47F00FFF730FD601C81B285
:101C5000681C0A2380B21A46FFF78AFC0A48FFF77D
:101C600025FD241D2D1DA1B2A8B2BDE8F05F0423FF
:101C70001A46FFF77DBC0000000000202E1A1A0053
:101C800055333300640000206666FF0030B587B02E
:101C90001020FFF70BFD00245FF0180504EB440053
:101CA00005EB800081B20623F0220020FFF760FCE4
:101CB000641C122CF2DB1020FFF7E6FC1948FFF73A
:101CC000DDFC4FF47F00FFF7F1FC17A24021372025
:101CD000FFF7D2FB1748FFF7D1FC1748FFF7E6FCE8
:101CE000164817A1C269684600F07CFA6A46682166
:101CF0003720FFF7C1FB1548FFF7C0FC1448FFF77A
:101D0000D5FC14A290211E20FFF7B6FB1748FFF761
:101D1000BBFC00224FF400511548FEF732FE07B01D
:101D200030BD00002400002047414D45204F56455E
:101D3000520000003000002000FFFF0000000020E3
:101D400053636F72653A2025640000003C00002058
:101D5000CCCCCC005072657373204B455920746F06
:101D60002072657374617274000000002E1A1A00EC
:101D7000000802401FB51B48FFF798FC00211623FE
:101D8000F0220846FFF7F4FB1748FFF777FC4FF601
:101D9000AA70FFF78BFC042114A20846FFF76CFB26
:101DA0001448FFF783FC144C14A16846E26900F064
:101DB00019FA6A4604216420FFF75EFB12A1684607
:101DC000E26800F00FFA6A460421AF20FFF754FBE7
:101DD0000F48FFF76BFCF02217210020FFF76AFB8A
:101DE0001FBD00001F0F0F003C000020534E414B51
:101DF0004500000000FFFF000000002053636F72E9
:101E0000653A2564000000004C656E3A25640000C8
:101E10005533330010B543F23900FEF70FFABDE831
:101E2000104000F04DB800002DE9F047144D4FF080
:101E30001408124C4FF0120905F5C866FEF7F4F9C4
:101E400090FBF8F208FB12006061FEF7EDF990FBE1
:101E5000F9F209FB1201A1610020E368626908E060
:101E600055F82070974203D156F820708F42E5D084
:101E7000401C9842F4DBBDE8F08700000000002021
:101E80006400002070B50D4D4FF4004421462846F3
:101E9000FEF76AFD38B90F20FEF75CFC21462846A4
:101EA000FEF762FD08B1002070BD21462846FEF70E
:101EB0005BFD0028F9D0012070BD00000000024049
:101EC00070B51A4803210022C0E90312C261026200
:101ED000174C0A220923002004F5C865161A44F895
:101EE000206045F82030401C8842F7DB1148FFF79E
:101EF000CBFBFFF715FA1048FFF7D8FB002116239C
:101F0000F0220846FFF734FB0C48FFF7CFFBF02226
:101F100017210020FFF7CEFAFFF786FFBDE87040DB
:101F2000012251030648FEF72CBD000000000020EE
:101F3000640000202E1A1A001F0F0F0055333300C3
:101F400000080240F0B42C4C2C4D04F5C866226801
:101F50003168286930B1012806D0022806D003284C
:101F600007D105E0521C04E0491C02E0521E00E0CB
:101F7000491E0127142A0FD200290DDB12290BDA82
:101F80001E4B0020DB680CE054F820C0944507D1BC
:101F900056F820C08C4503D12F62F0BCFFF776BE07
:101FA000401C9842F0DB18460DE000BF04EB8007B0
:101FB00057F8047C44F8207006EB800757F8047C3F
:101FC00046F82070401E0028F0DC2260316068690D
:101FD00082420FD1A86981420CD15B1CEB60E86999
:101FE0000A30E8614FF4C870834200DBE860F0BC5F
:101FF000FFF71ABFF0BC704764000020000000200B
:10200000FEF7CABC30B593B030216846FEF725F91B
:1020100014210CA8FEF721F91E480025016841F0A3
:1020200080510160006800F0805011901A480168EA
:1020300041F4804101600068022400F48040119066
:1020400001200090000401908001CDE906400820A5
:1020500008904FF4A870CDE9090404200B9068465D
:10206000FEF710FE08B172B6FEE70CA90F2081E85A
:1020700031004FF4A0500F904FF480501090052184
:102080000CA8FEF715FD002801D072B6FEE713B0CC
:1020900030BD000040380240007000400248016836
:1020A00041F470010160704788ED00E070B50446AE
:1020B00000680169E26821F440511143016121691E
:1020C000A068E26908436169114308432168CA684E
:1020D00049F20C639A430243CA6020684169A269CD
:1020E00021F440711143416131492068884202D096
:1020F0003049884202D1FEF785FD01E0FEF772FD0E
:10210000E2690023192164253226B2F5004F626886
:1021100028D0A0FB0101930F9200FEF753F801466F
:10212000B0FBF5F06FF01802504301EB800006EBB6
:102130000010B0FBF5F000F0F002B1FBF5F002EB9F
:102140000012B1FBF5F06FF01803584301EB80006B
:1021500006EB0010B0FBF5F000F00F002168104412
:10216000886070BDA0FB010192185B41FEF72AF860
:102170000146B0FBF5F00201B1FBF5F06FF018037A
:10218000584301EB800006EBC000B0FBF5F000F017
:10219000F80002EB4002B1FBF5F0584301EB800080
:1021A00006EBC000B0FBF5F000F00700D6E700003A
:1021B00000100140001401400848074901604FF435
:1021C000E1314160002181600822C160C0E9041250
:1021D0008161C161FFF70CB800100140E40C0020E0
:1021E000FEE700000FB4084B10B504A902AA03983B
:1021F00000F0EEF8044602A9002000F06CFC204636
:1022000010BC5DF814FB0000D72A00080907090E6E
:10221000002804DB00F1E02080F80014704700F093
:102220000F0000F1E02080F8141D704702E008C89C
:10223000121F08C1002AFAD170477047002001E040
:1022400001C1121F002AFBD1704700002DE9FF5F7A
:1022500082B00021DDE90430020DDDF840B0034317
:1022600018D044F61050A2F2FF32424315141198D0
:1022700001281FD0A5EB0B00401C5FEA000A4FF0BD
:1022800000064E4FDFF83891B046504615D5CAF1DA
:10229000000413E0119801244AA3012801D16FEA38
:1022A0000B010298119AC0E90031C0E9024206B060
:1022B000BDE8F09FCBF10000DFE704460021404A73
:1022C000491842EB0450CDE9001012E0E00707D0B6
:1022D00032463B4640464946FEF7A6F880468946C8
:1022E00032463B4610461946FEF79EF806460F4614
:1022F0006410002CEAD1DDE90401DDE90023BAF124
:10230000000F06DAFEF790F842464B46FEF78CF8CF
:1023100005E0FEF7FBF842464B46FEF7F7F80446A9
:102320000E460022284BFEF779F903D84FF0FF3014
:10233000014607E00022254B20463146FDF7CDFF40
:10234000FEF753F9102409E0002C0ADB0A220023CF
:10235000FDF738FF039B30321A55641E50EA010224
:10236000F2D1641C039AC4F111031444119A012A96
:1023700003D0012208430DD10AE0084304D0002015
:102380004FF0110B119072E7A3EB0B056D1E0DE0E2
:102390005B4504DD4FF0000205F1010504E003DABE
:1023A0004FF00002A5F10105002AECD00298119926
:1023B000C0E90231C0E9004579E70000000014409F
:1023C0000000F03F300000000000F0430000E03F5C
:1023D0002DE9FF4F95B09A46884606460025EEE166
:1023E000252877D100242746F94A0121039400E0EB
:1023F000044316F8013F203B01FA03F01042F7D1E5
:1024000030782A2811D06FF02F033078A0F13002F5
:10241000092A16D8039A44F0020402EB820203EB65
:1024200042021044761C0390EFE758F8042B039205
:10243000002A03DA504244F40054039044F00204AA
:10244000761C30782E2816D116F8010F44F00404BB
:102450002A280DD06FF02F023078A0F13003092B1D
:1024600009D807EB870302EB4303C718761CF3E791
:1024700058F8047B761C30786C280FD006DC4C288A
:1024800017D068280DD06A2814D104E0742810D021
:102490007A280FD10DE044F400140AE044F48014CB
:1024A00001E044F440147278824202D104F58014B1
:1024B000761C761C307866280BD013DC582877D031
:1024C00009DC002875D04528F6D04628F4D04728E6
:1024D0001AD193E118E0632835D0642879D06528B3
:1024E00012D18BE1702873D008DC6728F1D06928FD
:1024F0006FD06E280DD06F2806D1ACE073282CD099
:10250000752874D0782853D05246179990476D1C7F
:1025100054E1C4F30250022809D003280DD0D8F8A2
:10252000001004280DD00D6008F1040846E1D8F829
:102530000010EA17C1E90052F6E7D8F800100D8044
:10254000F2E70D70F0E718F8041B8DF8001000207A
:102550008DF80100EB46012003E058F804BB4FF072
:10256000FF3061074FF0000102D40DE009F10101D5
:102570008946B9420FDA8145F8DB1BF809100029BA
:10258000F4D108E009F1010189468142FADB1BF828
:1025900009100029F6D103985346A0EB09072146FC
:1025A0003846179A00F080FA284400EB090507E046
:1025B00044E008E10DE01BF8010B524617999047E3
:1025C000B9F10109F7D2534621463846179AF2E08D
:1025D00039E00A21C4F302524FF0000B0091022AA5
:1025E00006D058F8040BC117032A09D00AE023E0EB
:1025F00008F1070020F00702F2E80201904605E02A
:1026000000B2C117042A01D140B2C117002906DA6D
:102610000A460021404261EB02012D2202E0220520
:1026200004D52B228DF80420012203E0E20701D01B
:102630002022F7E7914657E00A2100E010214FF0F1
:10264000000B00910BE010214FF0000B44F004044C
:102650000827009103E008204FF0000B0090C4F31E
:102660000252022A05D058F8040B0021032A08D090
:1026700008E008F1070020F00702F2E802019046A6
:1026800003E080B2042A00D1C0B24FF00009220753
:102690002AD53278702A07D0DDF800C08CF0100CF3
:1026A0005CEA0B0C05D00EE040228DF804200122DC
:1026B00008E050EA010306D030238DF804308DF88D
:1026C000052002229146009B83F0080353EA0B0386
:1026D0000AD150EA010201D1620705D530228DF8F6
:1026E00004204FF001097F1E3278582A04D039A205
:1026F0000C920CAA02920BE03BA2F9E75B46009A0F
:10270000FDF760FD0C9B9B5C029A521E02921370B7
:1027100050EA0102F2D1029804A9081A00F1200B34
:10272000600702D524F4803400E001275F4502DD14
:10273000A7EB0B0000E0002000EB0B0100900398DA
:102740004944401A0390E00306D453462146179AA1
:10275000039800F0A9F90544002706E001A85246B5
:10276000C05D179990476D1C7F1C4F45F6DBE00359
:102770000CD553462146179A039800F095F9054465
:1027800004E030205246179990476D1C0099481E6E
:1027900000900029F5DC08E0029802995246007882
:1027A000491C0291179990476D1CBBF10001ABF1D8
:1027B000010BF1DC5BE100F065F90544761C307833
:1027C00000287FF40DAE19B02846BDE8F08F000058
:1027D00009280100303132333435363738396162F7
:1027E00063646566000000003031323334353637BB
:1027F000383941424344454600000000600700D498
:10280000062708F1070020F00700F0E802238046C1
:1028100003F0004C5FEA0C0001D097A009E020050E
:1028200001D596A005E0E00701D095A001E0AFF248
:102830004C001390307823F0004365280CD006DC60
:10284000452809D046281DD047287FD13BE066287F
:1028500018D067287AD136E00021112F01DB112032
:1028600000E0781CCDE9000104A90CA8FFF7EEFCFC
:10287000DDE90D010C9A4FF0000B07F101091092F0
:1028800000914EE04FF000400097CDE9011004A9FF
:102890000CA8FFF7DBFCDDE90D020C9B0F994FF054
:1028A000000B91461093009211B9791C00EB0109BD
:1028B000B7EB090003D4C0F1FF3B07F10109A9EB15
:1028C0000700019042E0012F00DA01270021112FBB
:1028D00001DD112000E03846CDE9000104A90CA873
:1028E000FFF7B4FCDDE90D010C9A00914FF0000BED
:1028F000B946109221070FD4009A4A4503DA91464F
:1029000001E0A9F10109B9F1010F05DD109AA9F162
:102910000101515C3029F4D0B84202DA10F1040F01
:1029200003DA0121CDE9011010E0002803DC834423
:10293000A9EB000102E0411C494500DD8946A0EBFE
:102940000B00401C01904FF000400290200705D47E
:102950000198484502DB4FF0FF30019000208DF8D0
:102960004B0002980DF14B07B0F1004F25D002202B
:102970000C902B200D90029800280CDA4042029017
:102980002D200D9007E00A210298FDF771FC3031EF
:10299000029007F8011D0C99481E0C900029F2DCEA
:1029A00002980028EFD1791E0D980870307800F059
:1029B000200040F0450007F8020D11A8C01BC01D03
:1029C00002901398007800B1012000EB09010198F2
:1029D00001EBE071029801440398401A401E0390F5
:1029E000E00306D453462146179A039800F05CF89A
:1029F00005441398007818B15246179990476D1CFA
:102A0000E00323D553462146179A039800F04CF86B
:102A100005441BE0BBF1000F07DB0098584504DDBF
:102A20001098179910F80B0001E0179930205246C2
:102A3000904701980BF1010B401E05F10105019033
:102A400004D12E205246179990476D1CB9F1000110
:102A5000A9F10109DEDC05E017F8010B52461799D0
:102A600090476D1C0299481E02900029F4DC5346E1
:102A70002146179A03989EE62D0000002B000000C7
:102A8000200000002DE9F041044600251E461746AF
:102A9000880404D405E039462020B0476D1C641E2C
:102AA000F9D52846BDE8F0812DE9F041044600251E
:102AB0001E469046C80301D5302700E02027880431
:102AC00004D505E041463846B0476D1C641EF9D573
:102AD0002846BDE8F0810A68531C0B6010707047EF
:102AE000FDF762FFFFF78EFAFEF7B4FEFFF764FB17
:102AF000FEF704FFFEF7F4FBFFF78CF9134C4FF4DD
:102B00000055134E4FF49677FFF7BCF918B1206AC1
:102B100058B1FFF7D5F9206A80B129463046FDF754
:102B200028FF3846FDF716FEEEE72069401CC11766
:102B300000EB917121F00301401A2061FFF702FAC6
:102B4000FEF7CCFFFFF716F9B420EBE700000020FA
:102B5000000802400000000000000000000000002B
:102B60000000000000000000000000000000000065
:102B70000000000000000000000000000000000055
:102B80000000000000000000000000006000600085
:102B900060006000600060006000400020002000D5
:102BA00020000000000000006000600060000000E5
:102BB000000000000000000060066006300398017D
:102BC0008800440000000000000000000000000039
:102BD00000000000000000000000000000000000F5
:102BE00000000000000000000000000010021002C1
:102BF00010021002FE07FE07080208010801080182
:102C00000801FE07FE07040104010401040100009D
:102C10000000000000000000000040004000F00143
:102C200058034C03CC034C0058007000E000C00176
:102C3000C00140034C035C034C034801F00040001A
:102C40004000000000000000000000000E010A012A
:102C5000910091009100510051003A00AE03A00292
:102C600050045004480448044804840284030000CB
:102C700000000000000000000000000038006C00B0
:102C80006C006C006C006C002C0098071C011A0191
:102C9000330133016301E300C308C6093C070000A8
:102CA00000000000000000000C001C0010001000DC
:102CB0000800040000000000000000000000000008
:102CC0000000000000000000000000000000000004
:102CD000000000000000000000040002000180006D
:102CE0008000400040002000200020002000200044
:102CF0002000200040004000800080000001000211
:102D000000040000000000000200040008001000A1
:102D10001000200020004000400040004000400023
:102D200040004000200020001000100008000400B7
:102D30000200000000000000000000000000000091
:102D40004000C0004000460C4E0FD001F0015E0F65
:102D5000460C400040004000000000000000000061
:102D60000000000000000000000000000000000063
:102D7000000040004000400040004000FE0F4000C6
:102D80004000400040004000000000000000000043
:102D90000000000000000000000000000000000033
:102DA0000000000000000000000000000000000023
:102DB00000000000000000000C001C0010001000CB
:102DC00008000400000000000000000000000000F7
:102DD000000000000000000000000000FE070000EE
:102DE00000000000000000000000000000000000E3
:102DF00000000000000000000000000000000000D3
:102E000000000000000000000000000000000000C2
:102E100000000000000000001C001C001C0000005E
:102E20000000000000000000000400060002000393
:102E30000001000180008000400040006000200090
:102E4000200010001000080008000C00040006001C
:102E50000200000000000000000000000000F00080
:102E600098010C030C03060606060606060606066F
:102E70000606060606060C030C039801F000000087
:102E80000000000000000000000000000000400002
:102E90007C00600060006000600060006000600016
:102EA000600060006000600060006000FC030000E3
:102EB0000000000000000000000000000000F8001A
:102EC0008401020306030603000300018001C00021
:102ED000600020001000080204020602FE03000049
:102EE000000000000000000000000000000078006A
:102EF000C6008601860180018001C000700080014B
:102F0000000100030003060306038601F800000029
:102F10000000000000000000000000000000800130
:102F20008001C001A001A0019001880188018401F5
:102F30008201FE0F8001800180018001E007000016
:102F40000000000000000000000000000000FC0382
:102F500004000400040004000400F4008C010403D5
:102F6000000300030603060382018401F800000049
:102F70000000000000000000000000000000E00170
:102F800018030C030C0004000600E60116030E06ED
:102F900006060606060604060C021803F0000000EA
:102FA0000000000000000000000000000000F80722
:102FB0000C060402040100010001800080004000B2
:102FC00040004000600060006000600060000000A1
:102FD0000000000000000000000000000000F801F8
:102FE0000C030606060606060C021C03F000C801C8
:102FF0000C0306060606060606060C03F001000092
:103000000000000000000000000000000000F000D0
:103010000C010C03060206060606060606078C06C9
:1030200078060006000300030C018C017800000004
:103030000000000000000000000000000000000090
:103040000000000000000000E000E000E0000000E0
:103050000000000000000000E000E000E0000000D0
:103060000000000000000000000000000000000060
:103070000000000000000000600060000000000090
:103080000000000000000000000060006000400040
:1030900020002000000000000000000000040002EA
:1030A000000180004000200010000800040008001B
:1030B0001000200040008000000100020004000019
:1030C0000000000000000000000000000000000000
:1030D0000000000000000000FE07000000000000EB
:1030E000FE070000000000000000000000000000DB
:1030F00000000000000000000000000004000800C4
:1031000010002000400080000001000200040002C6
:1031100000018000400020001000080004000000B2
:103120000000000000000000000000000000E003BC
:103130001806040C040C0C0C0C0C00078001400059
:103140004000400000000000E000E000E00000005F
:10315000000000000000000000000000E000180374
:103160000C02CC0564056605A605B604B604B604D3
:10317000B604B602E4010C040C021803F0000000CF
:1031800000000000000000000000000000006000DF
:1031900060005000D0009000900088008801080175
:1031A000F801040304030402020202060F0F0000E8
:1031B0000000000000000000000000000000FE0011
:1031C0008C030C030C030C030C038C01FC000C039C
:1031D0000C020C060C060C060C060C03FE0100008B
:1031E0000000000000000000000000000000E003FC
:1031F00018030C060C040404060006000600060072
:103200000600060006040C040C021803F00000007F
:1032100000000000000000000000000000007F002F
:103220008C010C030C030C060C060C060C060C0699
:103230000C060C060C060C030C038C017F0000002E
:103240000000000000000000000000000000FF037C
:10325000060306040604060086008600FE008600BB
:10326000860086000600060406040602FF0300002E
:103270000000000000000000000000000000FF034C
:10328000060306040604060086008600FE0086008B
:103290008600860006000600060006001F000000EB
:1032A0000000000000000000000000000000F0002E
:1032B00018010C020C0204020600060006000600BB
:1032C000C60F060306030C030C031803F0000000EE
:1032D00000000000000000000000000000000F0FD0
:1032E000060606060606060606060606FE07060685
:1032F0000606060606060606060606060F0F000068
:103300000000000000000000000000000000FC03BE
:1033100060006000600060006000600060006000AD
:10332000600060006000600060006000FC0300005E
:103330000000000000000000000000000000F8078E
:10334000C000C000C000C000C000C000C000C0007D
:10335000C000C000C000C000C000C000C000C60067
:1033600066003C0000000000000000000000CF03E9
:103370008601C60046002600160036002E006E00AC
:103380004600C60086008601060106038F0700007E
:1033900000000000000000000000000000001F000E
:1033A00006000600060006000600060006000600ED
:1033B000060006000600060406040602FF030000DD
:1033C00000000000000000000000000000000707EF
:1033D000860386038E038E034E034E034A035A036D
:1033E0005A033A0332033203320312038707000001
:1033F00000000000000000000000000000008E0F30
:103400000C021C021C0234023402640264024402F4
:10341000C402840284038403040304031F02000023
:103420000000000000000000000000000000F000AC
:1034300098010C030C02060606060606060606069A
:103440000606060606060C020C039801F0000000B2
:103450000000000000000000000000000000FF006D
:103460000603060606060606060606068603FE0090
:103470000600060006000600060006001F00000009
:103480000000000000000000000000000000F0004C
:1034900098010C030C02060606060606060606063A
:1034A0000606060676064C02CC039801F00080075B
:1034B0000003000000000000000000000000FF0109
:1034C000060306060606060606060603FE00460076
:1034D000C600860086010603060306060F0E0000DE
:1034E0000000000000000000000000000000F802E2
:1034F0000C030602060206000E003C00F800E00382
:10350000800300070206020606060C03F001000015
:103510000000000000000000000000000000FE07A6
:103520006204610861086000600060006000600083
:10353000600060006000600060006000F801000052
:1035400000000000000000000000000000001E0756
:103550000C020C020C020C020C020C020C020C02FB
:103560000C020C020C020C020C021801F00000000C
:1035700000000000000000000000000000000F0735
:103580000602040104010C010C0188008800980067
:103590009800500050007000300020002000000013
:1035A0000000000000000000000000000000F70E16
:1035B000620442044604460464026402E402E40233
:1035C0009C029C01980198018801880088000000F5
:1035D00000000000000000000000000000009E0746
:1035E0000C01080118019000B0006000200060008C
:1035F0006000D00090008801080104038E070000DD
:1036000000000000000000000000000000000F0F9C
:10361000060404020C0208011801B800B000700092
:10362000600060006000600060006000F801000061
:103630000000000000000000000000000000FC0787
:103640000C020603020180018000400040002000BF
:1036500020001000180008040C040402FE030000FF
:103660000000000000000000E00320002000200017
:10367000200020002000200020002000200020004A
:10368000200020002000200020002000200020003A
:10369000E00300000000000000000000040004003F
:1036A000080008001000100010002000200040005A
:1036B0004000C00080008000000100010002000204
:1036C00000020004000000007C00400040004000B8
:1036D00040004000400040004000400040004000EA
:1036E00040004000400040004000400040004000DA
:1036F0007C00000000006000900008010000000055
:1037000000000000000000000000000000000000B9
:1037100000000000000000000000000000000000A9
:103720000000000000000000000000000000000099
:103730000000000000000000000000000000000089
:103740000000000000000000000000000000000079
:103750000000FF0F000000001800600000000000E3
:103760000000000000000000000000000000000059
:103770000000000000000000000000000000000049
:103780000000000000000000000000000000000039
:103790000000000000000000F0010C030C03000317
:1037A000E0031C030E03060306038E0B7C0E0000D1
:1037B00000000000000000000000000008000E00F3
:1037C0000C000C000C000C00CC013C031C060C0689
:1037D0000C060C060C060C060C021C03E40100008F
:1037E00000000000000000000000000000000000D9
:1037F0000000000000000000F0008C018C01860138
:1038000006000600060006020C020C01F000000093
:103810000000000000000000000000000002C003E3
:10382000000300030003000378038C030C0306036A
:10383000060306030603060304038C077801000051
:103840000000000000000000000000000000000078
:103850000000000000000000E001180308020C0650
:103860000C06FC070C000C0018041802E001000014
:103870000000000000000000000000000000C00385
:103880006006300630003000FE01300030003000AD
:10389000300030003000300030003000FC0100000B
:1038A0000000000000000000000000000000000018
:1038B0000000000000000000F007D8068C018C0119
:1038C0008C019801F8000C00FC00CC0306030603F1
:1038D0008E03F800000000000000000008000E0049
:1038E0000C000C000C000C00EC011C030C030C037E
:1038F0000C030C030C030C030C030C039E070000C9
:103900000000000000000000000000000000600057
:1039100060000000000040007C006000600060006B
:10392000600060006000600060006000FC03000058
:103930000000000000000000000000000000C001C6
:10394000C001000000000001F00180018001800141
:10395000800180018001800180018001800180015F
:10396000CC007C00000000000000000008000E00F9
:103970000C000C000C000C008C038C008C004C0024
:103980006C005C008C008C010C010C039E07000095
:1039900000000000000000000000000040007C006B
:1039A0006000600060006000600060006000600017
:1039B000600060006000600060006000FC030000C8
:1039C00000000000000000000000000000000000F7
:1039D00000000000000000003707EE0666066606DD
:1039E000660666066606660666066606FF0F000041
:1039F00000000000000000000000000000000000C7
:103A00000000000000000000EE011C030C030C038A
:103A10000C030C030C030C030C030C039E070000A7
:103A20000000000000000000000000000000000096
:103A30000000000000000000F00098010C030606E2
:103A400006060606060606060C030C03F000000038
:103A50000000000000000000000000000000000066
:103A60000000000000000000EE011C030C060C0624
:103A70000C060C060C060C060C031C03EC010C00D7
:103A80000C003E00000000000000000000000000EC
:103A9000000000000000000078028C030C03060305
:103AA000060306030603060304038C0378030003DE
:103AB0000003C0070000000000000000000000003C
:103AC00000000000000000009F03580638061800A0
:103AD000180018001800180018001800FF00000057
:103AE00000000000000000000000000000000000D6
:103AF0000000000000000000F0031C030C020C0298
:103B00003800F000C003040304038C03FC01000030
:103B100000000000000000000000000000000000A5
:103B20002000200030003000FE0130003000300066
:103B3000300030003000300030023002E001000080
:103B40000000000000000000000000000000000075
:103B500000000000000008028E030C030C030C039D
:103B60000C030C030C030C030C039C0778010000EE
:103B70000000000000000000000000000000000045
:103B800000000000000000001E070C0208010801F0
:103B900018019000B000B00060006000200000003C
:103BA0000000000000000000000000000000000015
:103BB0000000000000000000F70E620446046402EA
:103BC0006402EC029C019801980198010800000031
:103BD00000000000000000000000000000000000E5
:103BE0000000000000000000BC0718011001B00038
:103BF00060006000E0009000080108039E070000DC
:103C000000000000000000000000000000000000B4
:103C100000000000000000009E07080108010801E4
:103C200090009000B0006000600060002000200064
:103C300024001C0000000000000000000000000044
:103C40000000000000000000FC018401C4004400EA
:103C5000600020003000180208020C03FC01000084
:103C600000000000000000000003800080008000D1
:103C70008000800080008000800040002000400024
:103C80008000800080008000800080008000800034
:103C900000030000400040004000400040004000A1
:103CA0004000400040004000400040004000400014
:103CB0004000400040004000400040004000400004
:103CC00040004000000000000C0010001000100038
:103CD0001000100010001000100020004000200014
:103CE0001000100010001000100010001000100054
:103CF0000C00000000001C002204C204800300002D
:103D000000000000000000000000000000000000B3
:103D100000000000000000000000000000000000A3
:103D20000000000000000000000000000000000093
:103D30000000000000000000000000000000000083
:103D40000000000000000000000000000000000073
:103D50000000300030003000300030002000200033
:103D60002000200020000000000030003000000093
:103D7000000000000000D800D8006C0024001200F1
:103D80000000000000000000000000000000000033
:103D90000000000000000000000000000000000023
:103DA00000000000840084008400FF01840084007F
:103DB000C60042004200FF014200420042000000F3
:103DC000000000000000000000002000F8002401B6
:103DD0002401A401280030006000A00020012C0173
:103DE00024012401F8002000200000000000000051
:103DF0000000000086004900490029002900190040
:103E0000D60028012801280124012401C200000055
:103E10000000000000000000000000000C00120084
:103E200012001200EA004600460025002900390071
:103E300011003201CC00000000000000000006006C
:103E40000600040002000100000000000000000065
:103E50000000000000000000000000000000000062
:103E60000000000000000001800040002000200051
:103E700020001000100010001000100010002000A2
:103E80002000200040008000000100000000010030
:103E900002000400080008000800100010001000D4
:103EA00010001000100008000800080004000200C4
:103EB00001000000000000000000000000002000E1
:103EC00020002603AE0370007000AE03260320001E
:103ED00020000000000000000000000000000000C2
:103EE0000000000000001000100010001000FF0192
:103EF0001000100010001000000000000000000082
:103F000000000000000000000000000000000000B1
:103F100000000000000000000000000000000000A1
:103F2000000006000600040002000100000000007E
:103F30000000000000000000000000000000FE0380
:103F40000000000000000000000000000000000071
:103F50000000000000000000000000000000000061
:103F60000000000000000000000000000000000051
:103F70000000060006000000000000000000000233
:103F80000001000180008000C000400060002000AF
:103F900030001000180008000800040004000200AF
:103FA0000000000000000000000000007800840015
:103FB0008400020102010201020102010201020168
:103FC0008400840078000000000000000000000071
:103FD0000000000010001C00100010001000100075
:103FE0001000100010001000100010007C000000F5
:103FF0000000000000000000000000007C008200C3
:1040000002010201020180004000200010000800AF
:1040100004010201FE010000000000000000000099
:10402000000000003C00420082008200400070005E
:104030008000000100010201020182007C000000FA
:104040000000000000000000000040004000600090
:10405000500048004800440042004200FE01400079
:1040600040004000F00100000000000000000000DF
:1040700000000000FC0104000400040004007400BF
:104080008C00000100010201020182007C0000009E
:10409000000000000000000000000000F000080127
:1040A0000401040002007A008600020102010201FC
:1040B00004018400780000000000000000000000FF
:1040C00000000000FE0182004200400020001000BD
:1040D00010000800080008000800080008000000A0
:1040E00000000000000000000000000078008400D4
:1040F0000201020102018400780084000201020131
:1041000002018400780000000000000000000000B0
:104110000000000078008400820002010201020118
:104120008401780100018000820042003C00000010
:10413000000000000000000000000000000000007F
:10414000000030003000000000000000000000000F
:1041500000003000300000000000000000000000FF
:10416000000000000000000000000000100000003F
:10417000000000000000000000000000100010001F
:10418000100010000000000000008000400020002F
:1041900010000800040002000400080010002000C5
:1041A000400080000000000000000000000000004F
:1041B00000000000000000000000FF0100000000FF
:1041C0000000FF01000000000000000000000000EF
:1041D00000000000000000000000020004000800D1
:1041E0001000200040008000400020001000080067
:1041F00004000200000000000000000000000000B9
:104200000000780084000201060106010001800020
:10421000400020002000200000003000300000009E
:104220000000000000000000000000007800C40052
:10423000F20159014901450125012501A500D900D7
:10424000020184007800000000000000000000006F
:10425000000000001000100028002800280028009E
:10426000440044007C00440082008200C70100003A
:104270000000000000000000000000003F004200BD
:104280004200420022003E00420082008200820082
:10429000820042003F00000000000000000000001B
:1042A0000000000078018401020102010100010008
:1042B00001000100010001010201860078000000F8
:1042C0000000000000000000000000003F00C200ED
:1042D0008200020102010201020102010201020147
:1042E000820042003F0000000000000000000000CB
:1042F00000000000FF0082000201420042007E0038
:10430000420042000200020002018200FF000000A1
:10431000000000000000000000000000FF0082001C
:104320000201420042007E00420042000200020000
:104330000200020007000000000000000000000072
:104340000000000070018801040102010200020067
:10435000020082030201020104010C01F0000000CE
:10436000000000000000000000000000C701820003
:104370008200820082008200FE00820082008200B1
:1043800082008200C7010000000000000000000061
:1043900000000000FE0010001000100010001000CF
:1043A000100010001000100010001000FE000000AF
:1043B000000000000000000000000000FC012000E0
:1043C00020002000200020002000200020002000ED
:1043D00020002000210011000E000000000000005D
:1043E00000000000E70142002200220012001A0033
:1043F000160022002200420042008200C701000095
:1044000000000000000000000000000007000200A3
:10441000020002000200020002000200020002008C
:1044200002018200FF000000000000000000000008
:1044300000000000C701C600C600C600AA00AA000E
:10444000AA00AA00AA00920092009200D7010000E0
:10445000000000000000000000000000C70186000E
:104460008A008A008A0092009200A200A200C20084
:10447000C200C20087000000000000000000000031
:10448000000000003800C6008200010101010101A6
:1044900001010101010101018200C6003800000094
:1044A0000000000000000000000000007F0082000B
:1044B00002010201020182007E00020002000200ED
:1044C00002000200070000000000000000000000E1
:1044D000000000003800C600820001010101010156
:1044E0000101010101011901A600A60078004001A7
:1044F000C000000000000000000000003F0042007B
:104500008200820042003E0012002200220042008F
:10451000420082008701000000000000000000004F
:1045200000000000780184010201020002000C007A
:104530007000800000010201020186007A00000084
:10454000000000000000000000000000FE0011015B
:1045500011011000100010001000100010001000D9
:1045600010001000380000000000000000000000F3
:1045700000000000C70182008200820082008200E9
:104580008200820082008200820044003800000025
:10459000000000000000000000000000C7018200D1
:1045A0008200440044004400440028002800280001
:1045B00038001000100000000000000000000000A3
:1045C00000000000BB019200920092009200AA003D
:1045D000AA00AA006A00440044004400440000000D
:1045E000000000000000000000000000CE01840078
:1045F0004400480028003000100030002800480027
:1046000048008400CE01000000000000000000000F
:1046100000000000C7018200440044002800280078
:1046200010001000100010001000100038000000F2
:10463000000000000000000000000000FC018400F9
:104640008200400040002000100010000800080018
:1046500004018400FE000000000000000000F001E2
:1046600010001000100010001000100010001000CA
:104670001000100010001000100010001000F001D9
:104680000000000000000000020004000400080018
:10469000080008001000100020002000200040004A
:1046A00040008000800080000001000000003E000B
:1046B00020002000200020002000200020002000FA
:1046C00020002000200020002000200020003E00CC
:1046D0000000000000003800280044000000000036
:1046E00000000000000000000000000000000000CA
:1046F00000000000000000000000000000000000BA
:1047000000000000000000000000000000000000A9
:104710000000000000000000000000000000000099
:104720000000FF030000180020000000000000004F
:104730000000000000000000000000000000000079
:104740000000000000000000000000000000000069
:104750000000000000000000000000007C0082005B
:104760008200F0008C0082008200C202BC030000C4
:104770000000000000000000000000000300020034
:10478000020002003A00460082008200820082009D
:10479000820046003A000000000000000000000017
:1047A000000000000000000000000000780084000D
:1047B0008200020002000200020184007800000072
:1047C000000000000000000000000000C0008000A9
:1047D00080008000B800C400820082008200820055
:1047E0008200C400B80100000000000000000000CA
:1047F00000000000000000000000000078008400BD
:104800000201FE01020002000201840078000000A3
:10481000000000000000000000000000E0011002A5
:1048200010001000FC00100010001000100010001C
:1048300010001000FC00000000000000000000005C
:10484000000000000000000000000000F8018400EB
:10485000840084008400780004007C00840102014C
:104860000201FC0000000000000000000300020044
:10487000020002007A00860082008200820082002C
:1048800082008200C701000000000000000000005C
:104890000000000018001800000000001C001000BC
:1048A0001000100010001000100010007C0000002C
:1048B0000000000000000000000000006000600038
:1048C0000000000070004000400040004000400038
:1048D000400040004000400022001E000000000098
:1048E000000000000300020002000200E2002200BB
:1048F00012000A001600220042008200C7010000D8
:104900000000000000000000000000001E00100079
:104910001000100010001000100010001000100017
:1049200010001000FE000000000000000000000069
:104930000000000000000000000000007F00920066
:10494000920092009200920092009200B701000043
:104950000000000000000000000000000000000057
:10496000000000007B00860082008200820082003E
:1049700082008200C701000000000000000000006B
:10498000000000000000000000000000780084002B
:10499000020102010201020102018400780000000C
:1049A0000000000000000000000000000000000007
:1049B000000000003B00460082008200820082006E
:1049C000820046003A0002000200070000000000DA
:1049D000000000000000000000000000B800C4005B
:1049E00082008200820082008200C400B800800041
:1049F0008000C00100000000000000000000000076
:104A000000000000CE01280118000800080008007E
:104A1000080008003E000000000000000000000048
:104A2000000000000000000000000000BC00C20008
:104A3000820006003800C000820086007A00000074
:104A40000000000000000000000000000000100056
:104A500010001000FC0010001000100010001000EA
:104A60001000900060000000000000000000000046
:104A7000000000000000000000000000C3008200F1
:104A800082008200820082008200C200BC0100001D
:104A90000000000000000000000000000000000016
:104AA00000000000C70182004400440044002800C8
:104AB00028001000100000000000000000000000AE
:104AC000000000000000000000000000BB01920098
:104AD00092009200AA00AA00440044004400000092
:104AE00000000000000000000000000000000000C6
:104AF00000000000CE01840048003000300030008B
:104B000048008400CE01000000000000000000000A
:104B1000000000000000000000000000EE01840022
:104B200088004800480050003000200010001000AD
:104B300010000C0000000000000000000000000059
:104B400000000000FE0042002200200010000800CB
:104B500084008200FE0000000000000000008001D0
:104B60004000400040004000400040006000100055
:104B70006000400040004000400040004000400015
:104B800080010000200020002000200020002000E4
:104B90002000200020002000200020002000200015
:104BA000200020002000200020002000000006003F
:104BB000080008000800080008000800180020008D
:104BC0001800080008000800080008000800080095
:104BD000060000001C0026022203C00100000000A5
:104BE00000000000000000000000000000000000C5
:104BF00000000000000000000000000000000000B5
:104C0000000000000000000000000000000000089C
:104C100008080808080800001818000000486C245C
:104C2000120000000000000000000000000000244E
:104C300024247F1212127F12121200000000081C9E
:104C40002A2A0A0C1828282A2A1C080800000022F0
:104C5000251515152A585454542200000000000C44
:104C60001212120A76252911916E00000006060420
:104C700003000000000000000000000000402010C1
:104C80001008080808080810102040000002040856
:104C90000810101010101008080402000000000096
:104CA00008086B1C1C6B08080000000000000000D6
:104CB000080808087F080808080000000000000035
:104CC00000000000000000000606040300000000D1
:104CD00000000000FE0000000000000000000000D6
:104CE00000000000000000000606000000008040F8
:104CF00040202010100808040402020000000018E0
:104D0000244242424242424224180000000000086D
:104D10000E08080808080808083E00000000003CCB
:104D20004242422020100804427E00000000003C65
:104D30004242201820404042221C00000000002077
:104D40003028242422227E20207800000000007ECB
:104D50000202021A26404042221C000000000038D5
:104D60002402021A26424242241800000000007E5B
:104D70002222101008080808080800000000003C63
:104D80004242422418244242423C000000000018E3
:104D90002442424264584040241C000000000000AD
:104DA00000001818000000001818000000000000A3
:104DB0000000000800000000000808040000004097
:104DC0002010080402040810204000000000000029
:104DD00000007F0000007F000000000000000002D3
:104DE0000408102040201008040200000000003CCD
:104DF0004242464020101000181800000000001C1D
:104E0000225A555555552D42221C0000000000081D
:104E100008181414243C224242E700000000001F3E
:104E20002222221E22424242221F00000000007C59
:104E30004242010101010142221C00000000001F4A
:104E40002242424242424242221F00000000003FF2
:104E50004212121E12120242423F00000000003FA6
:104E60004212121E12120202020700000000003C51
:104E70002222010101712122221C0000000000E712
:104E8000424242427E42424242E700000000003E6F
:104E90000808080808080808083E00000000007C10
:104EA00010101010101010101010110F00000077CB
:104EB00022120A0E0A1212222277000000000007B6
:104EC0000202020202020202427F0000000000779A
:104ED000363636362A2A2A2A2A6B0000000000E3DA
:104EE00046464A4A52525262624700000000001C85
:104EF0002241414141414141221C00000000003F4C
:104F0000424242423E020202020700000000001C30
:104F10002241414141414D53321C60000000003F9D
:104F20004242423E1212222242C700000000007C90
:104F30004242020418204042423E00000000007F2E
:104F40004908080808080808081C0000000000E7D5
:104F50004242424242424242423C0000000000E7DC
:104F60004242222424141418080800000000006B98
:104F7000494949495555362222220000000000E7E0
:104F8000422424181818242442E700000000007767
:104F90002222141408080808081C00000000007EE3
:104FA0002120101008040442423F00000078080845
:104FB0000808080808080808080878000000020225
:104FC000040408080810102020204040001E101083
:104FD000101010101010101010101E000038440097
:104FE00000000000000000000000000000000000C1
:104FF0000000000000000000000000FF00060800A4
:1050000000000000000000000000000000000000A0
:105010000000003C4278444242FC000000000003D3
:105020000202021A26424242261A00000000000034
:105030000000003844020202443800000000006012
:10504000404040784442424264D8000000000000E2
:105050000000003C427E0202423C0000000000F0E2
:105060008808087E08080808083E000000000000C4
:105070000000007C22221C023C42423C0000000353
:105080000202023A4642424242E700000000000C9F
:105090000C00000E08080808083E00000000003060
:1050A00030000038202020202020221E0000000395
:1050B00002020272120A1612227700000000000E8D
:1050C0000808080808080808083E0000000000005A
:1050D0000000007F9292929292B7000000000000C0
:1050E0000000003B4642424242E700000000000050
:1050F0000000003C42424242423C000000000000EE
:105100000000001B26424242221E0207000000004F
:105110000000007844424242447840E00000000031
:10512000000000774C040404041F0000000000008D
:105130000000007C42023C40423E000000000000B3
:105140000008083E080808080830000000000000B9
:10515000000000634242424262DC000000000000A6
:10516000000000E7422424140808000000000000AA
:10517000000000EB494955552222000000000000C4
:105180000000007624181818246E000000000000AB
:10519000000000E74224241418080807000000005B
:1051A0000000007E22100808447E000000C020207D
:1051B00020202010202020202020C00010101010BF
:1051C0001010101010101010101010100006080809
:1051D0000808081008080808080806000C32C20071
:1051E00000000000000000000000000000000000BF
:1051F0000000000001020304060708090000000087
:105200000102030424520008000000206400000092
:105210002C22000888520008640000202C1900008D
:105220003C220008FFFFFFFFFFFFFFFF0000000020
:10523000000000000000000000000000000000006E
:105240000000000000000000542B00080C001800B3
:1052500030000000243D00080A001400280000006F
:10526000FC4B0008080010001000000000000000C7
:10527000000000000100000010000000000000001D
:085280000024F400000000000E
:040000050800018965
:00000001FF
